{
  "_format": "hh-sol-artifact-1",
  "contractName": "DeCoinSale",
  "sourceName": "contracts/DeCoinSale.sol",
  "abi": [
    {
      "inputs": [
        {
          "internalType": "contract DeCoin",
          "name": "_token",
          "type": "address"
        }
      ],
      "stateMutability": "nonpayable",
      "type": "constructor"
    },
    {
      "anonymous": false,
      "inputs": [
        {
          "indexed": false,
          "internalType": "address",
          "name": "_buyer",
          "type": "address"
        },
        {
          "indexed": false,
          "internalType": "uint256",
          "name": "_amount",
          "type": "uint256"
        }
      ],
      "name": "Sell",
      "type": "event"
    },
    {
      "inputs": [],
      "name": "admin",
      "outputs": [
        {
          "internalType": "address payable",
          "name": "",
          "type": "address"
        }
      ],
      "stateMutability": "view",
      "type": "function"
    },
    {
      "inputs": [
        {
          "internalType": "uint256",
          "name": "_amount",
          "type": "uint256"
        }
      ],
      "name": "buyToken",
      "outputs": [],
      "stateMutability": "payable",
      "type": "function"
    },
    {
      "inputs": [],
      "name": "deCoinPrinceInEth",
      "outputs": [
        {
          "internalType": "int256",
          "name": "",
          "type": "int256"
        }
      ],
      "stateMutability": "view",
      "type": "function"
    },
    {
      "inputs": [],
      "name": "endSale",
      "outputs": [],
      "stateMutability": "nonpayable",
      "type": "function"
    },
    {
      "inputs": [],
      "name": "getBNBPrice",
      "outputs": [
        {
          "internalType": "int256",
          "name": "",
          "type": "int256"
        }
      ],
      "stateMutability": "view",
      "type": "function"
    },
    {
      "inputs": [],
      "name": "getETHPrice",
      "outputs": [
        {
          "internalType": "int256",
          "name": "",
          "type": "int256"
        }
      ],
      "stateMutability": "view",
      "type": "function"
    },
    {
      "inputs": [],
      "name": "token",
      "outputs": [
        {
          "internalType": "contract DeCoin",
          "name": "",
          "type": "address"
        }
      ],
      "stateMutability": "view",
      "type": "function"
    },
    {
      "inputs": [],
      "name": "tokenPriceUSD",
      "outputs": [
        {
          "internalType": "int256",
          "name": "",
          "type": "int256"
        }
      ],
      "stateMutability": "view",
      "type": "function"
    },
    {
      "inputs": [],
      "name": "tokensSold",
      "outputs": [
        {
          "internalType": "uint256",
          "name": "",
          "type": "uint256"
        }
      ],
      "stateMutability": "view",
      "type": "function"
    },
    {
      "inputs": [],
      "name": "transactionCount",
      "outputs": [
        {
          "internalType": "uint256",
          "name": "",
          "type": "uint256"
        }
      ],
      "stateMutability": "view",
      "type": "function"
    },
    {
      "inputs": [
        {
          "internalType": "uint256",
          "name": "",
          "type": "uint256"
        }
      ],
      "name": "transction",
      "outputs": [
        {
          "internalType": "address",
          "name": "buyer",
          "type": "address"
        },
        {
          "internalType": "uint256",
          "name": "amount",
          "type": "uint256"
        }
      ],
      "stateMutability": "view",
      "type": "function"
    }
  ],
  "bytecode": "0x608060405273691889f5944126906f0051c5ca087e975badabb3600160006101000a81548173ffffffffffffffffffffffffffffffffffffffff021916908373ffffffffffffffffffffffffffffffffffffffff1602179055503480156200006657600080fd5b50604051620012ac380380620012ac83398181016040528101906200008c9190620001dd565b738a753747a1fa494ec906ce90e9f37563a8af630e600560006101000a81548173ffffffffffffffffffffffffffffffffffffffff021916908373ffffffffffffffffffffffffffffffffffffffff160217905550732514895c72f50d8bd4b4f9b1110f0d6bd2c97526600660006101000a81548173ffffffffffffffffffffffffffffffffffffffff021916908373ffffffffffffffffffffffffffffffffffffffff160217905550600560048190555080600260006101000a81548173ffffffffffffffffffffffffffffffffffffffff021916908373ffffffffffffffffffffffffffffffffffffffff160217905550336000806101000a81548173ffffffffffffffffffffffffffffffffffffffff021916908373ffffffffffffffffffffffffffffffffffffffff160217905550506200026b565b600081519050620001d78162000251565b92915050565b600060208284031215620001f057600080fd5b60006200020084828501620001c6565b91505092915050565b6000620002168262000231565b9050919050565b60006200022a8262000209565b9050919050565b600073ffffffffffffffffffffffffffffffffffffffff82169050919050565b6200025c816200021d565b81146200026857600080fd5b50565b611031806200027b6000396000f3fe60806040526004361061009c5760003560e01c80637569c978116100645780637569c97814610155578063a607a8d914610193578063b77bf600146101be578063f2220c9e146101e9578063f851a44014610214578063fc0c546a1461023f5761009c565b80632d296bf1146100a1578063380d831b146100bd578063407fcc31146100d4578063518ab2a8146100ff57806372093d491461012a575b600080fd5b6100bb60048036038101906100b69190610a51565b61026a565b005b3480156100c957600080fd5b506100d2610568565b005b3480156100e057600080fd5b506100e9610780565b6040516100f69190610c17565b60405180910390f35b34801561010b57600080fd5b50610114610786565b6040516101219190610c32565b60405180910390f35b34801561013657600080fd5b5061013f61078c565b60405161014c9190610c17565b60405180910390f35b34801561016157600080fd5b5061017c60048036038101906101779190610a51565b6107ad565b60405161018a929190610bd3565b60405180910390f35b34801561019f57600080fd5b506101a86107f1565b6040516101b59190610c17565b60405180910390f35b3480156101ca57600080fd5b506101d36108b0565b6040516101e09190610c32565b60405180910390f35b3480156101f557600080fd5b506101fe6108b6565b60405161020b9190610c17565b60405180910390f35b34801561022057600080fd5b50610229610975565b6040516102369190610b8f565b60405180910390f35b34801561024b57600080fd5b50610254610999565b6040516102619190610bfc565b60405180910390f35b600061027461078c565b905081816102829190610d0d565b34121561028e57600080fd5b81600260009054906101000a900473ffffffffffffffffffffffffffffffffffffffff1673ffffffffffffffffffffffffffffffffffffffff166370a08231306040518263ffffffff1660e01b81526004016102ea9190610b74565b60206040518083038186803b15801561030257600080fd5b505afa158015610316573d6000803e3d6000fd5b505050506040513d601f19601f8201168201806040525081019061033a9190610a7a565b101561034557600080fd5b600260009054906101000a900473ffffffffffffffffffffffffffffffffffffffff1673ffffffffffffffffffffffffffffffffffffffff1663a9059cbb33846040518363ffffffff1660e01b81526004016103a2929190610bd3565b602060405180830381600087803b1580156103bc57600080fd5b505af11580156103d0573d6000803e3d6000fd5b505050506040513d601f19601f820116820180604052508101906103f49190610a28565b6103fd57600080fd5b600160009054906101000a900473ffffffffffffffffffffffffffffffffffffffff1673ffffffffffffffffffffffffffffffffffffffff166108fc349081150290604051600060405180830381858888f19350505050158015610465573d6000803e3d6000fd5b5081600360008282546104789190610c4d565b9250508190555060405180604001604052803373ffffffffffffffffffffffffffffffffffffffff1681526020018381525060086000600754815260200190815260200160002060008201518160000160006101000a81548173ffffffffffffffffffffffffffffffffffffffff021916908373ffffffffffffffffffffffffffffffffffffffff160217905550602082015181600101559050506007600081548092919061052690610ef8565b91905055507f5e5e995ce3133561afceaa51a9a154d5db228cd7525d34df5185582c18d3df09338360405161055c929190610bd3565b60405180910390a15050565b60008054906101000a900473ffffffffffffffffffffffffffffffffffffffff1673ffffffffffffffffffffffffffffffffffffffff163373ffffffffffffffffffffffffffffffffffffffff16146105c057600080fd5b6000600260009054906101000a900473ffffffffffffffffffffffffffffffffffffffff1673ffffffffffffffffffffffffffffffffffffffff166370a08231306040518263ffffffff1660e01b815260040161061d9190610b74565b60206040518083038186803b15801561063557600080fd5b505afa158015610649573d6000803e3d6000fd5b505050506040513d601f19601f8201168201806040525081019061066d9190610a7a565b9050600260009054906101000a900473ffffffffffffffffffffffffffffffffffffffff1673ffffffffffffffffffffffffffffffffffffffff1663a9059cbb60008054906101000a900473ffffffffffffffffffffffffffffffffffffffff16836040518363ffffffff1660e01b81526004016106ec929190610baa565b602060405180830381600087803b15801561070657600080fd5b505af115801561071a573d6000803e3d6000fd5b505050506040513d601f19601f8201168201806040525081019061073e9190610a28565b61074757600080fd5b60008054906101000a900473ffffffffffffffffffffffffffffffffffffffff1673ffffffffffffffffffffffffffffffffffffffff16ff5b60045481565b60035481565b6000806107976107f1565b9050806004546107a79190610ca3565b91505090565b60086020528060005260406000206000915090508060000160009054906101000a900473ffffffffffffffffffffffffffffffffffffffff16908060010154905082565b600080600560009054906101000a900473ffffffffffffffffffffffffffffffffffffffff1673ffffffffffffffffffffffffffffffffffffffff1663feaf968c6040518163ffffffff1660e01b815260040160a06040518083038186803b15801561085c57600080fd5b505afa158015610870573d6000803e3d6000fd5b505050506040513d601f19601f820116820180604052508101906108949190610aa3565b5050509150506305f5e100816108aa9190610ca3565b91505090565b60075481565b600080600660009054906101000a900473ffffffffffffffffffffffffffffffffffffffff1673ffffffffffffffffffffffffffffffffffffffff1663feaf968c6040518163ffffffff1660e01b815260040160a06040518083038186803b15801561092157600080fd5b505afa158015610935573d6000803e3d6000fd5b505050506040513d601f19601f820116820180604052508101906109599190610aa3565b5050509150506305f5e1008161096f9190610ca3565b91505090565b60008054906101000a900473ffffffffffffffffffffffffffffffffffffffff1681565b600260009054906101000a900473ffffffffffffffffffffffffffffffffffffffff1681565b6000815190506109ce81610f9f565b92915050565b6000815190506109e381610fb6565b92915050565b6000813590506109f881610fcd565b92915050565b600081519050610a0d81610fcd565b92915050565b600081519050610a2281610fe4565b92915050565b600060208284031215610a3a57600080fd5b6000610a48848285016109bf565b91505092915050565b600060208284031215610a6357600080fd5b6000610a71848285016109e9565b91505092915050565b600060208284031215610a8c57600080fd5b6000610a9a848285016109fe565b91505092915050565b600080600080600060a08688031215610abb57600080fd5b6000610ac988828901610a13565b9550506020610ada888289016109d4565b9450506040610aeb888289016109fe565b9350506060610afc888289016109fe565b9250506080610b0d88828901610a13565b9150509295509295909350565b610b2381610e9e565b82525050565b610b3281610e36565b82525050565b610b4181610e24565b82525050565b610b5081610eb0565b82525050565b610b5f81610e54565b82525050565b610b6e81610e7e565b82525050565b6000602082019050610b896000830184610b38565b92915050565b6000602082019050610ba46000830184610b29565b92915050565b6000604082019050610bbf6000830185610b1a565b610bcc6020830184610b65565b9392505050565b6000604082019050610be86000830185610b38565b610bf56020830184610b65565b9392505050565b6000602082019050610c116000830184610b47565b92915050565b6000602082019050610c2c6000830184610b56565b92915050565b6000602082019050610c476000830184610b65565b92915050565b6000610c5882610e7e565b9150610c6383610e7e565b9250827fffffffffffffffffffffffffffffffffffffffffffffffffffffffffffffffff03821115610c9857610c97610f41565b5b828201905092915050565b6000610cae82610e54565b9150610cb983610e54565b925082610cc957610cc8610f70565b5b600160000383147f800000000000000000000000000000000000000000000000000000000000000083141615610d0257610d01610f41565b5b828205905092915050565b6000610d1882610e54565b9150610d2383610e54565b9250827f7fffffffffffffffffffffffffffffffffffffffffffffffffffffffffffffff0482116000841360008413161615610d6257610d61610f41565b5b817f80000000000000000000000000000000000000000000000000000000000000000583126000841260008413161615610d9f57610d9e610f41565b5b827f80000000000000000000000000000000000000000000000000000000000000000582126000841360008412161615610ddc57610ddb610f41565b5b827f7fffffffffffffffffffffffffffffffffffffffffffffffffffffffffffffff0582126000841260008412161615610e1957610e18610f41565b5b828202905092915050565b6000610e2f82610e5e565b9050919050565b6000610e4182610e5e565b9050919050565b60008115159050919050565b6000819050919050565b600073ffffffffffffffffffffffffffffffffffffffff82169050919050565b6000819050919050565b600069ffffffffffffffffffff82169050919050565b6000610ea982610ed4565b9050919050565b6000610ebb82610ec2565b9050919050565b6000610ecd82610e5e565b9050919050565b6000610edf82610ee6565b9050919050565b6000610ef182610e5e565b9050919050565b6000610f0382610e7e565b91507fffffffffffffffffffffffffffffffffffffffffffffffffffffffffffffffff821415610f3657610f35610f41565b5b600182019050919050565b7f4e487b7100000000000000000000000000000000000000000000000000000000600052601160045260246000fd5b7f4e487b7100000000000000000000000000000000000000000000000000000000600052601260045260246000fd5b610fa881610e48565b8114610fb357600080fd5b50565b610fbf81610e54565b8114610fca57600080fd5b50565b610fd681610e7e565b8114610fe157600080fd5b50565b610fed81610e88565b8114610ff857600080fd5b5056fea26469706673582212205b8f18f99c1dc1bb3112d27ee800afbb8ea8641574c2ecbaa50d3bbf6e5d509d64736f6c63430008040033",
  "linkReferences": {},
  "deployedLinkReferences": {}
}